:100000000C942A000C9434000C9434000C943400AA
:100010000C9434000C9434000C9434000C94340090
:100020000C9434000C9434000C9434000C94340080
:100030000C9434000C9434000C9434000C94340070
:100040000C9434000C9434000C9434000C94340060
:100050000C94340011241FBECFE5D4E0DEBFCDBF29
:100060000E9436000C9459000C9400008FEF90E031
:100070009BBB8ABB1CBA1BBA8BB39CB381609CBB75
:100080008BBB2FE38DE093E0215080409040E1F75F
:1000900000C000008BB39CB38E7F9CBB8BBB2FE357
:1000A0008DE093E0215080409040E1F700C00000D7
:0600B000E3CFF894FFCF3E
:00000001FF
